{
  "description": "Critical gas token attack: custom gas token + custom refund receiver + non-zero gas price",
  "version": "1.3.0",
  "transaction": {
    "safe": "0xf65475e74C1Ed6d004d5240b06E3088724dFDA5d",
    "to": "0xA0b86991c6218b36c1d19D4a2e9Eb0cE3606eB48",
    "value": "0",
    "data": "0xa9059cbb0000000000000000000000001234567890123456789012345678901234567890000000000000000000000000000000000000000000000000000000003b9aca00",
    "operation": 0,
    "safeTxGas": "0",
    "baseGas": "0",
    "gasPrice": "1000000000",
    "gasToken": "0xdAC17F958D2ee523a2206206994597C13D831ec7",
    "refundReceiver": "0x9999999999999999999999999999999999999999",
    "nonce": "999",
    "safeTxHash": "0x0000000000000000000000000000000000000000000000000000000000000000",
    "isExecuted": false,
    "isSuccessful": null,
    "confirmations": [],
    "dataDecoded": {
      "method": "transfer",
      "parameters": [
        {
          "name": "to",
          "type": "address",
          "value": "0x1234567890123456789012345678901234567890"
        },
        {
          "name": "value",
          "type": "uint256",
          "value": "1000000000"
        }
      ]
    }
  }
}
