{
  "description": "CRITICAL: Setting a Safe guard - improperly configured guards can brick the Safe",
  "version": "1.3.0",
  "transaction": {
    "safe": "0xf65475e74C1Ed6d004d5240b06E3088724dFDA5d",
    "to": "0xf65475e74C1Ed6d004d5240b06E3088724dFDA5d",
    "value": "0",
    "data": "0xe19a9dd90000000000000000000000009999999999999999999999999999999999999999",
    "operation": 0,
    "safeTxGas": "0",
    "baseGas": "0",
    "gasPrice": "0",
    "gasToken": "0x0000000000000000000000000000000000000000",
    "refundReceiver": "0x0000000000000000000000000000000000000000",
    "nonce": "999",
    "safeTxHash": "0x0000000000000000000000000000000000000000000000000000000000000000",
    "isExecuted": false,
    "isSuccessful": null,
    "confirmations": [],
    "dataDecoded": {
      "method": "setGuard",
      "parameters": [
        {
          "name": "guard",
          "type": "address",
          "value": "0x9999999999999999999999999999999999999999"
        }
      ]
    }
  }
}
