{
  "description": "CRITICAL: Enabling a Safe module - modules have unlimited access and bypass signatures",
  "version": "1.3.0",
  "transaction": {
    "safe": "0xf65475e74C1Ed6d004d5240b06E3088724dFDA5d",
    "to": "0xf65475e74C1Ed6d004d5240b06E3088724dFDA5d",
    "value": "0",
    "data": "0x610b59250000000000000000000000001234567890123456789012345678901234567890",
    "operation": 0,
    "safeTxGas": "0",
    "baseGas": "0",
    "gasPrice": "0",
    "gasToken": "0x0000000000000000000000000000000000000000",
    "refundReceiver": "0x0000000000000000000000000000000000000000",
    "nonce": "999",
    "safeTxHash": "0x0000000000000000000000000000000000000000000000000000000000000000",
    "isExecuted": false,
    "isSuccessful": null,
    "confirmations": [],
    "dataDecoded": {
      "method": "enableModule",
      "parameters": [
        {
          "name": "module",
          "type": "address",
          "value": "0x1234567890123456789012345678901234567890"
        }
      ]
    }
  }
}
