{
  "description": "CRITICAL: Multiple security issues - untrusted delegate call + gas token attack + owner modification",
  "version": "1.3.0",
  "transaction": {
    "safe": "0xf65475e74C1Ed6d004d5240b06E3088724dFDA5d",
    "to": "0x1234567890123456789012345678901234567890",
    "value": "0",
    "data": "0x694e80c30000000000000000000000000000000000000000000000000000000000000001",
    "operation": 1,
    "safeTxGas": "0",
    "baseGas": "0",
    "gasPrice": "1000000000",
    "gasToken": "0xdAC17F958D2ee523a2206206994597C13D831ec7",
    "refundReceiver": "0x9999999999999999999999999999999999999999",
    "nonce": "999",
    "safeTxHash": "0x0000000000000000000000000000000000000000000000000000000000000000",
    "isExecuted": false,
    "isSuccessful": null,
    "confirmations": [],
    "dataDecoded": {
      "method": "changeThreshold",
      "parameters": [
        {
          "name": "_threshold",
          "type": "uint256",
          "value": "1"
        }
      ]
    }
  }
}